:020000040800F2
:10000000F08A0020C5010008F55500085545000894
:10001000F1550008490300080B9800080000000093
:10002000000000000000000000000000255E000845
:10003000910400080000000009560008895E0008CD
:10004000DF010008DF010008DF010008DF01000810
:10005000DF010008DF010008DF010008DF01000800
:10006000DF010008DF010008DF010008DF010008F0
:10007000DF010008DF010008DF010008DF010008E0
:10008000DF010008DF010008DF010008DF010008D0
:10009000DF010008DF010008DF010008DF010008C0
:1000A000DF010008DF010008DF010008DF010008B0
:1000B000595F0008DF010008DF010008DF010008C8
:1000C000DF010008DF010008DF010008DF01000890
:1000D000DF0100087165000881650008DF01000884
:1000E000DF010008DF010008DF010008DF01000870
:1000F000DF010008DF010008DF010008DF01000860
:10010000DF010008DF010008DF010008DF0100084F
:10011000DF010008DF010008DF010008DF0100083F
:10012000DF010008DF010008DF010008DF0100082F
:10013000DF010008DF010008DF010008DF0100081F
:10014000DF010008DF010008DF010008F9550008A1
:10015000DF010008DF010008DF010008DF010008FF
:10016000DF010008DF010008DF010008DF010008EF
:10017000DF010008DF010008DF01000800000000C7
:10018000DF01000809060008DF010008DF010008A0
:10019000DF010008DF010008DF010008DF010008BF
:1001A000914F0008DF010008DF010008DFF810D0E0
:1001B00000F0A6F800480047E5AD0008AFF3008066
:1001C000F08A00200648804706480047FEE7FEE721
:1001D000FEE7FEE7FEE7FEE7FEE7FEE7FEE7FEE7F7
:1001E000455F0008AD0100082DE9F05F05460020DD
:1001F00092469B4688460646814640241BE0284698
:1002000041464746224600F06AF853465A46C01A0D
:10021000914110D311461846224600F051F82D1A8C
:1002200067EB01084F4622460120002100F048F804
:1002300017EB00094E41201EA4F10104DFDC484603
:1002400031462A464346BDE8F09F40EA01039B073A
:1002500003D009E008C9121F08C0042AFAD203E03B
:1002600011F8013B00F8013B521EF9D27047D2B29F
:1002700001E000F8012B491EFBD270470022F6E78F
:1002800010B513460A4604461946FFF7F0FF20460C
:1002900010BDCAB2401E10F8011F8A4202D00029C8
:1002A000F9D10020704730B504460020034600E035
:1002B0005B1C934203D2E05CCD5C401BF8D030BDA8
:1002C000202A04DB203A00FA02F100207047914016
:1002D000C2F1200320FA03F3194390407047202A0B
:1002E00004DB203A21FA02F00021704721FA02F3E0
:1002F000D040C2F1200291400843194670470000E7
:10030000064C074D06E0E06840F0010394E8070062
:1003100098471034AC42F6D3FFF74CFF90F4000836
:10032000B0F4000810B5034607E018780C78A04236
:1003300001D0002010BD5B1C491C101EA2F101045D
:10034000A2B2F2D10120F5E700BFFEE72DE9F047A8
:100350000C4617469C46DDF82080D0F80090D9F86E
:10036000449009F0404948EA0C4A49EA0A09D0F8A1
:1003700000A0CAF84490D0F80090C9F83C70D0F8BA
:100380000490B9F5403F4ED104F07F4604F47F015C
:1003900004F47F42E3B2D0F80890B9F1000F06D11F
:1003A00042EA010949EA060949EA030536E0D0F8BC
:1003B0000890B9F1010F04D142EA010949EA0305A5
:1003C0002CE0D0F80890B9F1020F09D1C90C920ABB
:1003D000DB084FEA421949EAC12949EA03051DE051
:1003E000D0F80890B9F1030F0CD1F60FC90CD20A5E
:1003F000DB084FEA421949EA812949EAC63949EA44
:1004000003050BE0360F090D120B1B094FEA021909
:1004100049EA012949EA063949EA0305D0F800907A
:10042000C9F8385003E0D0F80090C9F80C40BDE896
:10043000F0870146002200BF05E0002301F561704E
:1004400040F82230521C0F2AF7D3002204E0002388
:1004500001F58E708354521CB2F5007FF7D3002053
:1004600008704870012088700020C1F8C40301237F
:100470000B7640238B7100234B7681F81C330123CC
:1004800081F81D33002381F81F3381F81E33704734
:10049000704772B600BFFEE730B502460023002465
:1004A0000868012816D013686FF30E03D1E901051F
:1004B0002843CD6828430D6928434D6928438D6939
:1004C0002843CD6928430D6A28434D6A28430343D6
:1004D000136019E0136823F4F843D1E907052843B2
:1004E0004D6A2843034354686FF30E04D1E90105B4
:1004F0002843CD6828430D6928434D6928438D69F9
:100500002843044313605460002030BD0246506904
:1005100040EA4100506100207047F8B506460C469D
:100520001546002000900027D4E900010843A16887
:10053000491E40EA4110E16840EA412000900098DD
:10054000306100F04BFC074609E0681C38B125B16A
:1005500000F044FCC01BA84201D90320F8BDB069DB
:1005600000F020002028F0D00020F7E770B5034607
:10057000154600220024012D1FD09A6802F0704217
:100580000868401E4E68761E40EA06168868401EBF
:1005900046EA0026C868401E46EA0036088A401E21
:1005A00046EA0046888A401E46EA0056087E401EFB
:1005B00046EA006002439A6022E09A6811480240CD
:1005C000C868401E0603888A401E46EA005002435F
:1005D000DC6804F070440868401E4E68761E40EAED
:1005E00006168868401E46EA0026088A401E46EA2B
:1005F0000046087E401E46EA006004439A60DC60C4
:10060000002070BDFF0F0FFF7047000010B50024E1
:100610000DE04FF40C700AF011FC174941F824006A
:10062000084650F8240000B903E0601CC4B2042C52
:10063000EFDB00BF4FF40A700AF000FC0F490860BE
:100640004FF40A700AF0FAFB0D4908604FF400708D
:100650000AF0F4FB0B490860042C0AD10748006833
:1006600038B10748006820B10846006808B100208A
:1006700010BD0120FCE700009C0A0020BC00002007
:10068000C0000020CC00002070B502460C46506827
:10069000B0F5403F02D0506800B100BF00BF92F8F3
:1006A0003800012801D1022070BD012082F83800F5
:1006B00000BF022082F8390002F1180000EB04119B
:1006C0000E89486840EA0643214D48680A2802D04E
:1006D0004868092804D1C86800F07F40034302E05D
:1006E000087B43EA0063A4B91068406AA843184332
:1006F0001668706208681668B06148680A2802D0F7
:100700004868092819D1C86820F07F401668B0628F
:1007100013E01068C069A84318431668F0610868C0
:100720001668306148680A2802D04868092804D150
:10073000C86820F07F4016683062012082F83900D6
:1007400000BF002082F8380000BF00BFACE7000007
:100750000F0003FF014691F83900704710B50446B9
:100760000CB9012010BD94F8390028B9002084F894
:100770003800204600F032F8022084F83900206862
:10078000006820F4403061680843216808602068F0
:10079000406B20F00700A168084321684863206887
:1007A000006C6FF30D00E1680843216808640020C5
:1007B000E063012084F839000020D3E7054A01688E
:1007C000914205D10449096821F40001024A1160EF
:1007D0007047000000B002403038024008B50A4AB5
:1007E000016891420FD100BF0021009107490968BB
:1007F00041F40001054A11601146096801F4000145
:10080000009100BF00BF08BD00B002403038024078
:10081000F8B504460D46002000902068006800F0FE
:100820000100002843D000F0D9FA064639E02068DC
:1008300040680090009800F02100E0B1009800F0BE
:10084000200018B1E06B40F00200E063009800F077
:10085000010018B1E06B40F00100E0632120216845
:100860008860042084F8390000BF002084F8380034
:1008700000BF0120F8BD681C98B100F0AFFA801BE2
:10088000A84200D86DB9E06B40F02000E06303207F
:1008900084F8390000BF002084F8380000BF03202E
:1008A000E8E72068406800F002000028BFD0206818
:1008B000C06900F020072068406A00F0200007436C
:1008C000002F4BD000F08AFA064641E020684068CD
:1008D0000090009800F0290020B3009800F0080074
:1008E00018B1E06B40F00400E063009800F02000D5
:1008F00018B1E06B40F00200E063009800F00100E6
:1009000018B1E06B40F00100E063292021688860A5
:10091000042084F8390000BF002084F8380000BFAC
:100920000120A7E7681C98B100F058FA801BA84284
:1009300000D86DB9E06B40F02000E063032084F83C
:10094000390000BF002084F8380000BF032091E781
:100950002068406800F010000028B7D012202168FD
:100960008860012084F8390000BF002084F8380036
:1009700000BF00BF7EE72DE9F84304460D4616464A
:100980001F46DDF8208000BF94F83800012802D10E
:100990000220BDE8F883012084F8380000BF02205F
:1009A00084F839003B46324629462046CDF800807F
:1009B000FFF7CCFC2068006840F001002168086067
:1009C0000020E6E770B50446A56D00F007FA06467C
:1009D00094F83500022808D08020606500BF002010
:1009E00084F8340000BF012070BD2068006820F04A
:1009F0001600216808602068406920F080002168A6
:100A00004861206C08B9A06C28B12068006820F00B
:100A10000800216808602068006820F00100216853
:100A2000086010E000F0DAF9801B05280BD92020BF
:100A30006065032084F8350000BF002084F834008E
:100A400000BF0320D0E72068006800F00100002804
:100A5000E8D194F85C103F208840A860012084F819
:100A6000350000BF002084F8340000BF00BFBBE7A2
:100A7000014691F83500022803D080204865012006
:100A80007047052081F835000868006820F00100F3
:100A90000A6810600020F3E770B5044600F09EF984
:100AA00006462546681C10B104480078054400BF7E
:100AB00000F094F9801BA842FAD370BD1400002006
:100AC00000B587B0142102A8FFF7D8FB31480068B1
:100AD00008B107B000BD01202E49086000BF00200A
:100AE00001902D48006840F001002B49086008463D
:100AF000006800F00100019000BF00BF4FF63F000A
:100B000002900220039000200490032005900C2006
:100B1000069002A9214800F04BF80D200290022017
:100B2000039000200490032005900C20069002A959
:100B30001B4800F03DF848F2371002900220039065
:100B400000200490032005900C20069002A915486F
:100B500000F02EF84FF683700290022003900020E0
:100B60000490032005900C20069002A90E4800F086
:100B70001FF84CF2037002900220039000200490B2
:100B8000032005900C20069002A9084800F010F8F8
:100B900000BF9EE7000000203838024000140240E9
:100BA000000802400018024000100240000C024001
:100BB000F8B502460B460025002400200021DFE0A6
:100BC000012606FA01F51E6806EA0504AC4274D156
:100BD0001E7906F00306012E04D01E7906F00306E6
:100BE000022E13D190684F000326BE40B0434F0041
:100BF000DE68BE4030439060506801268E40B043AE
:100C00001E79C6F300168E40304350601E7906F000
:100C10000306032E09D0D0684F000326BE40B04320
:100C20004F009E68BE403043D0601E7906F0030638
:100C3000022E13D1CF0802F1200656F827004E07E6
:100C4000F70E0F26BE40B0434F07FF0E1E69BE4091
:100C50003043CF0802F1200646F8270010684F0005
:100C60000326BE40B0431E7906F003064F00BE4087
:100C7000304310605E6806F44036002E7FD000BF1F
:100C800000260096404E366846F480463E4F3E6051
:100C90003E46366806F48046009600BF00BF3B4ED5
:100CA0008F0856F827008E07370F0F26BE40B04337
:100CB000374EB24202D100262EE060E0354EB242FD
:100CC00001D1012628E0344EB24201D1022623E0B0
:100CD000324EB24201D103261EE0314EB24201D162
:100CE000042619E02F4EB24201D1052614E02E4E03
:100CF000B24201D106260FE02C4EB24201D10726A6
:100D00000AE02B4EB24201D1082605E0294EB2423C
:100D100001D1092600E00A268F073F0FBE4030436D
:100D20001A4E8F0846F82700234E3068A0435E68AD
:100D300006F4803606B120431F4E3060361D306801
:100D4000A0435E6806F4003606B120431A4E361DF5
:100D50003060361D3068A0435E6806F4801606B128
:100D60002043154E08363060361D3068A0435E685B
:100D700006F4001606B120430F4E0C363060491CB5
:100D80001029FFF41DAFF8BD443802400838014077
:100D9000000002400004024000080240000C024033
:100DA000001002400014024000180240001C0240E3
:100DB0000020024000240240003C014010B542697E
:100DC00021EA020302EA010443EA0443836110BDFD
:100DD0000AB1816101E00B0483617047014800683A
:100DE000704700000C00002010B50446D4F8000342
:100DF00006F009F810BD10B50446D4F8000306F05B
:100E00000DF810BD10B50446206808F0AFF810BD0D
:100E100010B50446206808F0B0F810BD024601EB9A
:100E2000410000EBC10302F1380000EB830090F8B1
:100E300028007047024601EB410000EBC10302F1BC
:100E4000380000EB83008069704770B504460D469A
:100E5000002600BF94F8F802012801D1022070BDDD
:100E6000012084F8F80200BF2946206808F096F8AF
:100E700000BF002084F8F80200BF3046EFE72DE9FC
:100E8000FE4F04460D4616461F46DDE90D9ADDF875
:100E9000308000BF94F8F802012802D10220BDE89A
:100EA000FE8F012084F8F80200BF002105EB450009
:100EB00000EBC50204F1380000EB8200417105EB44
:100EC000450000EBC50104F1380000F8217005EB86
:100ED000450000EBC50104F1380000EB8100A0F8EB
:100EE00008A005EB450000EBC50104F1380000EB5C
:100EF0008100457005EB450000EBC50104F13800A9
:100F000000EB810080F8079006F07F0105EB4500BB
:100F100000EBC50204F1380000EB8200817006F09E
:100F2000800080280AD1012105EB450000EBC502B5
:100F300004F1380000EB8200C17009E0002105EBEC
:100F4000450000EBC50204F1380000EB8200C170DF
:100F500005EB450000EBC50104F1380000EB810012
:100F600080F804808DE800073B4632462946206819
:100F700008F0ECF8834600BF002084F8F80200BFB8
:100F800058468CE770472DE9F05F04460D4616463B
:100F90001F46DDE90C9BDDE90A8A05EB450000EB05
:100FA000C50104F1380000EB8100C67005EB450077
:100FB00000EBC50104F1380000EB8100C771B8F106
:100FC000000F14D1032105EB450000EBC50204F12D
:100FD000380000EB8200817205EB450000EBC50193
:100FE00004F1380000EB810080F805B009E002212F
:100FF00005EB450000EBC50204F1380000EB820070
:10100000817237B1012F76D0022F33D0032F73D1E5
:1010100073E0B8F1010F2CD106BBB9F1000F09D173
:10102000012105EB450000EBC50204F1380000EB9F
:101030008200417705EB450000EBC50104F1380063
:1010400000EB8100407F50B9002105EB450000EB2B
:10105000C50204F1380000EB8200817209E0022130
:1010600005EB450000EBC50204F1380000EB8200FF
:1010700081728FE0FEB905EB450000EBC50104F17C
:10108000380000EB8100407F50B9002105EB45009E
:1010900000EBC50204F1380000EB8200817229E008
:1010A000022105EB450000EBC50204F1380000EB1E
:1010B000820081721EE005EB450000EBC50104F1E2
:1010C000380000EB8100007F50B9002105EB45009E
:1010D00000EBC50204F1380000EB8200817209E0E8
:1010E000022105EB450000EBC50204F1380000EBDE
:1010F000820081724EE041E04BE0FEB905EB450015
:1011000000EBC50104F1380000EB8100407F50B9CD
:10111000002105EB450000EBC50204F1380000EBAF
:101120008200817229E0022105EB450000EBC50237
:1011300004F1380000EB820081721EE005EB4500EF
:1011400000EBC50104F1380000EB8100007F50B9CD
:10115000002105EB450000EBC50204F1380000EB6F
:101160008200817209E0022105EB450000EBC50217
:1011700004F1380000EB820081720BE0002105EBE6
:10118000450000EBC50204F1380000EB82008172DB
:1011900000E000BF00BF05EB450000EBC50104F116
:1011A000380000EB8100C0F80CA005EB450000EB17
:1011B000C50104F1380000EB8100C0F81490002153
:1011C00005EB450000EBC50204F1380000EB82009E
:1011D00080F8281005EB450000EBC50204F138004B
:1011E00000EB8200816105EB450000EBC50104F1D5
:1011F000380000EB81004570002105EB450000EB55
:10120000C50204F1380000EB820080F82910227C2E
:1012100005EB450303EBC50C04F1380303EB8C012C
:10122000206808F06DF8BDE8F09F2DE9F041044614
:101230002768B846206807F0ACFE01287DD12068F9
:1012400008F0E0F908B9BDE8F081206808F0DAF9A3
:1012500000F40010B0F5001F03D14FF40010216816
:101260004861206808F0CEF900F48010B0F5801FC6
:1012700003D14FF4801021684861206808F0C2F95A
:1012800000F08060B0F1806F03D14FF08060216882
:101290004861206808F0B6F900F00200022801D188
:1012A00021684861206808F0ADF900F00050B0F105
:1012B000005F16D14FF0005021684861D8F8400413
:1012C00000F0010068B91021384607F035FE3846B5
:1012D00007F01AFE0121206808F072F92046FFF796
:1012E0008AFD206808F08EF900F08070B0F1807FF0
:1012F00002D1204603F011F8206808F083F900F0CD
:101300000800082805D1204600F0F8F808202168D8
:101310004861206808F076F9C0F3001080B12068B9
:10132000806920F0100021688861204603F050F8A1
:101330002068806940F0100000E030E0216888619A
:10134000206808F05FF900F00070B0F1007F26D14E
:10135000206807F0CDFF0646002519E005F00F01D3
:1013600001208840304090B108F5A06000EB4510A6
:10137000006800F40040B0F5004F04D1E9B2204607
:1013800002F077F803E0E9B2204602F023FC6D1C7E
:10139000A068A842E2D84FF000702168486100BF01
:1013A00051E730B58BB0044614B901200BB030BD05
:1013B000256894F8F90228B9002084F8F80220463C
:1013C00000F02AF8032084F8F902E86B00F480703A
:1013D00008B900212161206807F040FD282204F1AE
:1013E00010016846FEF731FF94E80F0007F0CAFCD1
:1013F0000121206808F059F9282204F110016846FB
:10140000FEF723FF94E80F0008F062F8012084F84B
:10141000F9020020CAE7000010B586B00446142186
:1014200001A8FEF72BFF2068B0F1A04F4BD100BF01
:10143000002000902548006840F001002349086022
:101440000846006800F00100009000BF00BF48158A
:10145000019000200290039001A91D48FFF7A8FB0E
:101460004FF4C0500190022002900020039003200E
:1014700004900A20059001A91548FFF799FB00BFC9
:101480001248001D006840F080001049091D0860E6
:1014900000BF002000900D481430006840F48040E8
:1014A0000A49143108600846006800F48040009042
:1014B00000BF00BF00BF00220C21432000F09AFBB8
:1014C000432000F087FB06B010BD0000303802401A
:1014D0000000024010B50446D4F8000305F068FD92
:1014E00010BD10B50446D4F8000305F065FD10BD2D
:1014F00010B50446206808F0BAF810BD10B50446CF
:10150000D4F8000305F0FDFC10BD10B5044600BF83
:1015100094F8F802012801D1022010BD012084F8BE
:10152000F80200BF0121206807F0C2FC206807F024
:10153000E4FC00BF002084F8F80200BF00BFECE725
:1015400010B5044600BF94F8F802012801D102202A
:1015500010BD012084F8F80200BF206808F0D9F817
:1015600000BF002084F8F80200BF00BFF0E70000D1
:101570000348006803490978084401490860704736
:101580000C0000201400002010B50D48006840F445
:1015900000700B4908600846006840F480600860ED
:1015A0000846006840F480700860032000F060FB8B
:1015B0000F2000F007F800F0E1FA002010BD000055
:1015C000003C024070B504460E4800784FF47A7132
:1015D000B1FBF0F00C490968B1FBF0F5284601F0C9
:1015E000F1F908B1012070BD102C07D2002221466C
:1015F000501E00F0FFFA0548046001E00120F2E708
:101600000020F0E714000020180000201000002047
:1016100070B504460E46154600BF94F8A000012898
:1016200001D1022070BD012084F8A00000BF02207B
:1016300084F8A10005EB850101EBC50204F1380136
:1016400001EB820034223146FEF7FFFD2A46314687
:10165000204603F0A5FC01202168486284F8A1001F
:1016600000BF002084F8A00000BF00BFDAE7704789
:1016700070B504462068856B2068466B05F0040051
:10168000E0B106F00400C8B12068406B20F004000F
:101690002168486304202168C863D4F8A40040F09E
:1016A0000100C4F8A400042084F8A10000BF0020B9
:1016B00084F8A00000BF2046FFF7D9FF05F0020024
:1016C000E0B106F00200C8B12068406B20F00200D3
:1016D0002168486302202168C863D4F8A40040F060
:1016E0000200C4F8A400042084F8A10000BF002078
:1016F00084F8A00000BF2046FFF7B9FF05F0010005
:10170000A8B106F0010090B12068406B20F0010004
:101710002168486301202168C86384F8A10000BFE4
:10172000002084F8A00000BF204600F0A7F805F0D4
:101730000800B0B106F0080098B12068406B20F0B6
:1017400008002168486308202168C863012084F8E4
:10175000A10000BF002084F8A00000BF204600F0D8
:10176000C9F970BD70B504460CB9012070BD94F87C
:10177000A10028B9002084F8A000204600F098F8C5
:10178000022084F8A1002068806920F07040216860
:101790008861D4E901010843E168084321690843ED
:1017A0002168896908432168886120688068324916
:1017B000084021688860A08A050420688068A169C3
:1017C00029430843216888602068C0682A49084086
:1017D0002168C860A08B05042068C068216A29437D
:1017E00008432168C86020680069234908402168CF
:1017F0000861A08C050420680069A16A2943084398
:1018000021680861206840691B49084021684861D7
:10181000A08D050420684069216B29430843216895
:10182000486194F83500050294F8360006042068F3
:10183000C06A00F07F402168C86246EA050094F85B
:10184000341008432168C96A08432168C8622068C7
:10185000406B40F00600216848632068806940F0D2
:101860000100216888610020C4F8A400012084F8E8
:10187000A10000207AE7000000F800F010B504464F
:10188000A44211D10948FEF765FF022804D0074899
:10189000FEF760FF032803D164210448FEF7B8FF78
:1018A0000021204600F0FCF810BD0000DC00002004
:1018B00010B592B0044614210DA8FEF7DFFC3021CC
:1018C00001A8FEF7DBFC6E49206888427ED1082023
:1018D0000190322005900221079100200A9001A872
:1018E00000F0DAF908B1FEF7D4FD00BF0020009047
:1018F0006448006840F080606249086008460068FB
:1019000000F08060009000BF00BF00BF002000908A
:101910005C481438006840F010005A4914390860D7
:101920000846006800F01000009000BF00BF00BF34
:10193000002000900846006840F480700860084667
:10194000006800F48070009000BF00BF00BF00205E
:1019500000900846006840F02000086008460068D3
:1019600000F02000009000BF00BF00BF00200090EA
:101970000846006840F0800008600846006800F0F3
:101980008000009000BF00BF00BF0020009008460C
:10199000006840F0400008600846006800F0400021
:1019A000009000BF00BF00BF002000900846006804
:1019B00040F0080008600846006800F00800009049
:1019C00000BF00BF70200D90022000E056E00E9096
:1019D00000200F9010900E2011900DA92A48FFF7BB
:1019E000E7F840F2F3600D9002200E9000200F9077
:1019F00010900E2011900DA92448FFF7D9F84FF44C
:101A000080600D9002200E9000200F9010900E200C
:101A100011900DA91E48FFF7CBF84FF60C700D90F2
:101A200002200E9000200F9010900E2011900DA912
:101A30001848FFF7BDF84FF4E6500D9002200E90C5
:101A400000200F9010900E2011900DA91248FFF762
:101A5000AFF808200D9002200E9000200F901090FB
:101A60000E2011900DA90D48FFF7A2F800220821C1
:101A7000582000F0BFF8582000F0ACF812B010BDAC
:101A8000006801404438024000100240002002403B
:101A900000140240001C024000180240000C0240EA
:101AA000024600BF92F8A000012801D10220704731
:101AB000012082F8A00000BF022082F8A100106877
:101AC000406B20F0010013685863094801601068FA
:101AD000406B40F0010013685863012082F8A100B8
:101AE00000BF002082F8A00000BF00BFDFE70000B9
:101AF0004068014010B50446A4420DD10748FEF7E6
:101B000029FE022804D00548FEF724FE032803D14D
:101B100064210248FEF77CFE10BD0000DC000020BE
:101B20002DE9F04104460E46174600BF94F8A00088
:101B3000012802D10220BDE8F081012084F8A00034
:101B400000BF022084F8A10007EB870000EBC7016B
:101B500004F1380000EB81056E613A4629462046C3
:101B600003F01EFA01202168486284F8A10000BF3A
:101B7000002084F8A00000BF00BFDCE708B500BF6C
:101B8000002000901248006840F48040104908602E
:101B90000846006800F48040009000BF00BF00BF0E
:101BA00000200090081F006840F08050091F086066
:101BB0000846006800F08050009000BF00BF00227F
:101BC0001146512000F016F8512000F003F808BD2E
:101BD0004438024001460846002809DB00F01F0394
:101BE00001229A4043099B0003F1E023C3F800213E
:101BF00000BF70472DE9F05F80460D46164600276E
:101C000007F016FE074639462A46334601F007001C
:101C1000C0F1070ABAF1040F02D94FF0040A01E03B
:101C2000C0F1070AD14600F1040ABAF1070F02D247
:101C30004FF0000A01E0A0F1030AD4464FF0010A78
:101C40000AFA09FAAAF1010A0AEA020A0AFA0CFADD
:101C50004FF0010B0BFA0CFBABF1010B0BEA030B82
:101C60004AEA0B042146404607F0EAFDBDE8F09F32
:101C700000BF00F00702064B19684FF6FF0319403A
:101C8000044B0B4343EA0221014B196000BF70472C
:101C90000CED00E00000FA05F8B50446002500262A
:101CA000207800F0010048B9207800F002000228F6
:101CB00004D0207800F04000402862D10020B149D3
:101CC0008866FFF78BF8054606E0FFF787F8401BAC
:101CD000022801D90320F8BDAB480068C0F3C060FA
:101CE0000028F2D1207800F0010038B1606881014D
:101CF000207A41EA0070A44984310860207800F01D
:101D00000200022819D1A04884300068C0F302768E
:101D100060688101207B41EA006040EA06709A49D0
:101D20008431086098488C30006820F01F00E16919
:101D3000491E084394498C310860207800F0400027
:101D400040280AD160688101207B41EA0061207A45
:101D500041EA00708C498431086001208949886615
:101D6000FFF73CF8054606E0FFF738F8401B02286D
:101D700001D90320AFE784480068C0F3C0600028A1
:101D8000F2D0207800F00400042804D0207800F07D
:101D90000800082863D100207A490867FFF71EF879
:101DA000054606E0FFF71AF8401B022801D9032078
:101DB00091E775480068C0F340700028F2D12078A0
:101DC00000F00400042819D16F4888300068C0F37F
:101DD000027620698101207D41EA006040EA0670B8
:101DE000694988310860081D006820F4F851206AAC
:101DF000401E41EA002064498C310860207800F0E0
:101E00000800082817D1604888300068C0F30366CE
:101E10002069800140EA0661207E41EA00705A494B
:101E200088310860081D006820F44030616A08436A
:101E300055498C310860012052490867FEF7CEFFF2
:101E4000054606E0FEF7CAFF401B022801D9032021
:101E500041E74D480068C0F340700028F2D0207878
:101E600000F0200020287DD100BF002000904648CF
:101E70004030006840F080504349403108600846D7
:101E8000006800F08050009000BF00BF3F4800682D
:101E900040F480703D490860FEF7A0FF054606E06B
:101EA000FEF79CFF401B022801D9032013E73748A7
:101EB000006800F480700028F2D033487030006869
:101EC00000F440764EB3208D00F44070B04224D030
:101ED0002D487030006820F4407601202C490860BD
:101EE00000200860284870300660006800F001009B
:101EF00098B1FEF773FF054608E0FEF76FFF401B41
:101F000041F28831884201D90320E4E61E4870304E
:101F10000068C0F340000028EFD000BF208D00F41F
:101F20004070B0F5407F0CD117480830006820F4AD
:101F3000F810184AA16A1140084313490831086093
:101F400007E011480830006820F4F8100E49083105
:101F500008600D4870300068218DC1F30B01084303
:101F6000094900E002E07031086000BF207800F00D
:101F70001000102803D194F82C00074908600020B5
:101F8000A9E600000000474200380240007000400F
:101F9000400E4742FFFCFF0FE011474270B5044678
:101FA0000D460CB9012070BD5848006800F00F00C4
:101FB000A84209D255490D700846006800F00F008C
:101FC000A84201D00120EEE7207800F002000228AC
:101FD0001DD1207800F00400042805D14C48006889
:101FE00040F4E0504A490860207800F008000828D2
:101FF00005D14748006840F46040454908604448BE
:10200000006820F0F000A16808434149086020788A
:1020100000F00100A8B36068012807D13C480838E7
:102020000068C0F34040B8B90120BCE760680228EE
:1020300002D06068032807D1354808380068C0F32B
:10204000406048B90120AEE7314808380068C0F365
:10205000400008B90120A6E72D48006820F00300E1
:10206000616808432A490860FEF7B8FE064609E0A1
:10207000FEF7B4FE801B41F28831884202D903206A
:1020800091E707E02248006800F00C006168B0EBBF
:10209000810FEDD11D48006800F00F00A84209D95A
:1020A0001A490D700846006800F00F00A84201D0E0
:1020B000012078E7207800F00400042807D11448B4
:1020C000006820F4E050E168084311490860207876
:1020D00000F00800082808D10D48006820F460408E
:1020E000216940EAC1000A49086000F03FF8084948
:1020F0000968C1F30311074A515CC84006490860EA
:1021000006480068FFF75EFA00204CE7003C0240FA
:102110000838024032B700081800002010000020E4
:1021200001480068704700001800002000B5FFF764
:10213000F7FF04490968C1F38221034A515CC84092
:1021400000BD00000838024042B7000800B5FFF7A4
:10215000E7FF04490968C1F34231034A515CC840B2
:1021600000BD00000838024042B700082DE9F047E2
:10217000002400250026A1462548006800F00C0038
:1021800020B1042805D008283AD105E0DFF8849072
:1021900039E0DFF8849036E01D48001F006800F049
:1021A0003F041B48001F006800F4800078B11A4803
:1021B0001749091F0968C1F38811A0FB0170014686
:1021C000224600233846FEF70FF805460EE0114878
:1021D0000F49091F0968C1F38811A0FB017001466E
:1021E000224600233846FDF7FFFF05460848001F3A
:1021F0000068C0F30140401C4600B5FBF6F902E060
:10220000DFF8109000BF00BF4846BDE8F08700002F
:10221000083802400024F40000127A00F8B50446A1
:102220000CB90120F8BD207800F00100002874D01E
:10223000F948006800F00C0004280DD0F64800684A
:1022400000F00C00082813D1F348001F006800F4C8
:102250008000B0F5800F0BD1EF4808380068C0F35C
:102260004040002859D06068002856D10120D9E7A5
:1022700000BF6068B0F5803F08D1E74808380068C3
:1022800040F48030E449083908601EE06068B0F529
:10229000A02F0DD1E0480838006840F48020DE49C6
:1022A000083908600846006840F4803008600CE097
:1022B000D9480838006820F48030D74908390860C8
:1022C0000846006820F48020086000BF606890B174
:1022D000FEF784FD054606E0FEF780FD401B6428FE
:1022E00001D903209EE7CC4808380068C0F340407D
:1022F0000028F1D011E0FEF771FD054606E0FEF77B
:102300006DFD401B642801D903208BE7C2480838C3
:102310000068C0F340400028F1D1207800F00200AE
:1023200002285FD1BC48006800F00C0058B1BA48E0
:10233000006800F00C0008281CD1B748001F006896
:1023400000F48000B0B9B44808380068C0F3400019
:1023500020B1E068012801D0012063E7AE480838C9
:10236000006820F0F800216940EAC100AA49083954
:10237000086037E0E06800B30120A8490860FEF774
:102380002DFD054606E0FEF729FD401B022801D978
:10239000032047E7A04808380068C0F34000002841
:1023A000F1D09D480838006820F0F800216940EA23
:1023B000C10099490839086014E000209749086075
:1023C000FEF70CFD054606E0FEF708FD401B02285F
:1023D00001D9032026E7904808380068C0F3400080
:1023E0000028F1D1207800F0080008282CD160697D
:1023F000A8B101208A490860FEF7F0FC054606E016
:10240000FEF7ECFC401B022801D903200AE78248B2
:102410006C300068C0F340000028F1D014E00020C8
:102420007F490860FEF7DAFC054606E0FEF7D6FCB9
:10243000401B022801D90320F4E677486C3000687D
:10244000C0F340000028F1D1207800F004000428F7
:1024500070D1002770483830006800F0805090B983
:1024600000BF002000906C483830006840F0805079
:102470006949383108600846006800F080500090D3
:1024800000BF00BF01276748006800F48070B0B942
:102490006448006840F4807062490860FEF79EFC62
:1024A000054606E0FEF79AFC401B022801D90320EE
:1024B000B8E65C48006800F480700028F2D000BFE5
:1024C000A068012808D154486830006840F0010035
:1024D0005149683108601DE0A06805280DD14E48BB
:1024E0006830006840F004004B49683108600846D5
:1024F000006840F0010008600CE047486830006860
:1025000020F001004449683108600846006820F066
:102510000400086000BFA068A8B1FEF75FFC054694
:1025200009E0FEF75BFC401B41F28831884202D98A
:10253000032077E626E0384868300068C0F34000A2
:102540000028EED013E0FEF749FC054608E0FEF750
:1025500045FC401B41F28831884201D9032061E6E5
:102560002D4868300068C0F340000028EFD1012FEB
:1025700007D129483830006820F08050264938318A
:10258000086000BFA069002845D02348006800F01B
:102590000C0008285DD0A069022845D100201F4901
:1025A0000866FEF71BFC054606E0FEF717FC401B1D
:1025B000022801D9032035E6174808380068C0F31F
:1025C00040600028F1D1D4E907010843616A40EA7C
:1025D00081110122A06AC2EB500041EA00412C2087
:1025E000005D41EA00600C49091F086001200B49A9
:1025F0000866FEF7F3FB054606E0FEF7EFFB401B1F
:10260000022801D903200DE6034808380068C0F30A
:1026100040600028F1D049E00838024000004742FD
:10262000800E474200700040002021490866FEF7F6
:10263000D5FB054606E0FEF7D1FB401B022801D979
:102640000320EFE51B480068C0F340600028F2D18A
:102650002CE0A069012800D1E4E51648001D0668B9
:10266000A069012820D006F48001E06981421BD1D5
:1026700006F03F01206A814216D147F6C070304013
:10268000616AB0EB811F0FD106F440310122A06ACC
:10269000C2EB5000B1EB004F06D106F070612C2068
:1026A000005DB1EB006F01D00120BBE50020B9E572
:1026B000000047420038024070B504460D460CB990
:1026C000012070BD94F82C0028B9002084F82D005A
:1026D000204600F011F8022084F82C00211D20680B
:1026E000FDF7DAFE2946D4E90002FDF73FFF01209D
:1026F00084F82C000020E4E710B50446FEF7E0F96A
:1027000010BD70B504460D4694F82C00022800D187
:1027100070BD022084F82C0029462068FDF7F6FEE3
:10272000012084F82C000020F2E770B504460D4625
:10273000164694F82C00022800D170BD022084F8BF
:102740002C00324629462068FDF7E7FE286802285B
:1027500003D1052084F82C0002E0012084F82C002D
:102760000020EAE710B504460CB9012010BD606AEC
:1027700038B96068B0F5827F00D105E00021E161E1
:1027800002E00021216161610021A16294F8510001
:1027900028B9002084F85000204600F047F80220B5
:1027A00084F851002068006820F04000216808602B
:1027B000A08800F48270218901F404410843A189B2
:1027C00001F400610843217C01F002010843217DEE
:1027D00001F001010843218B01F400710843217FBE
:1027E00001F0380108432021095D01F08001084310
:1027F000218D01F400510843216808600421A0697B
:1028000001EA104094F8241001F0100108432168F7
:1028100048602068C06920F400602168C861002019
:102820006065012084F8510000209FE710B586B054
:10283000044600BF002000905D48006840F00100A1
:102840005B4908600846006800F00100009000BF86
:1028500000BF00BF002000900846006840F0010063
:1028600008600846006800F00100009000BF00BF4B
:1028700000BF002000900846006840F0010008609A
:102880000846006800F00100009000BF00BF00BFD4
:1028900000BF002000900846006840F00400086077
:1028A0000846006800F00400009000BF00BF00BFB1
:1028B000002000900846006840F08000086008464C
:1028C000006800F08000009000BF00BF00BF002043
:1028D00000900846006840F0020008600846006862
:1028E00000F00200009000BF00BF00BF0020009079
:1028F0000846006840F0010008600846006800F0E3
:102900000100009000BF00BF00BF00BF002000908A
:1029100027481430006840F480502549143108607D
:102920000846006800F48050009000BF00BF2020DF
:1029300001900220029001200390022004900520C3
:10294000059001A91B48FEF733F9402001900520AE
:10295000059001A91748FEF72BF98020019005206A
:10296000059001A91348FEF723F9202001900120CA
:10297000029001A91048FEF71BF9102001900120D8
:10298000029001A90D48FEF713F901200190029071
:1029900001A90B48FEF70CF94FF40040019001200B
:1029A000029001A90348FEF703F906B010BD00002C
:1029B000303802400000024000080240001C024083
:1029C0000004024070B504462546681EB0F1807FC1
:1029D00001D301200FE0681E4FF0E02148610F2174
:1029E0004FF0FF3006F02CFF00204FF0E02188610F
:1029F00007200861002070BD7047704730B502465F
:102A00000B4600BF92F83C00012801D1022030BDE6
:102A1000012082F83C0000BF022082F83D001068CF
:102A200044681068816824F07004186804431068D2
:102A30004460184D1068A8421BD01068B0F1804F58
:102A400017D0154D1068A84213D0144D1068A84235
:102A50000FD0134D1068A8420BD0124D1068A84239
:102A600007D0114D1068A84203D0104D1068A8423D
:102A700005D121F080015868014310688160012070
:102A800082F83D0000BF002082F83C0000BF00BF7C
:102A9000BDE70000000001400004004000080040C5
:102AA000000C0040000401400040014000180040BC
:102AB00010B504460CB9012010BD94F83D0028B9AA
:102AC000002084F83C00204600F026F8022084F81C
:102AD0003D00211D206803F047FA012084F84600DC
:102AE00000BF84F83E0001213F20015540200155E0
:102AF0004120015500BF00BF012084F8420043205F
:102B00000155442001554520015500BF012084F89E
:102B10003D000020D0E7000038B504462068B0F141
:102B2000804F17D100BF002000900B48006840F094
:102B30000100094908600846006800F001000090A3
:102B400000BF00BF002209211C20FFF753F81C2002
:102B5000FFF740F838BD000040380240014691F8C8
:102B60003D00012801D001207047022081F83D007E
:102B70000868C06840F001000B68D8601A4B08680C
:102B800098421BD00868B0F1804F17D0174B0868E7
:102B9000984213D0164B086898420FD0154B08681E
:102BA00098420BD0144B0868984207D0134B086822
:102BB000984203D0124B086898420CD1086880688C
:102BC00000F00702062A0CD00868006840F00100F7
:102BD0000B68186005E00868006840F001000B68A9
:102BE00018600020C0E70000000001400004004021
:102BF00000080040000C004000040140004001407B
:102C0000001800402DE9F04104460D46002700BFA2
:102C100094F83C00012802D10220BDE8F081012097
:102C200084F83C0000BF022084F83D0020688668DC
:102C300026F0770626F47F462068866028685028AC
:102C400033D00CDC202850D004DC00284BD01028D6
:102C500051D149E0302849D040284CD139E0602892
:102C60002DD0702807D0B0F5805F03D0B0F5005F9D
:102C700041D10DE041E0D5E902136A68206803F014
:102C8000DFF92068866846F077062068866034E0C1
:102C9000D5E902136A68206803F0D2F920688068D9
:102CA00040F480402168886027E0EA68696820680D
:102CB00003F0DAF95021206803F0CDF91DE0EA684D
:102CC0006968206803F0E3F96021206803F0C3F924
:102CD00013E0EA686968206803F0C6F940212068BB
:102CE00003F0B9F909E000BF00BF00BF2968206800
:102CF00003F0B1F901E0012700BF00BF012084F813
:102D00003D0000BF002084F83C0000BF384684E747
:102D1000704710B5044620680069C0F34000D8B180
:102D20002068C068C0F34000B0B16FF002002168B5
:102D30000861012020772068806900F0030018B145
:102D40002046FFF7E5FF05E0204600F0ADF82046FD
:102D500000F0ABF80020207720680069C0F3800005
:102D6000D8B12068C068C0F38000B0B16FF0040033
:102D700021680861022020772068806900F4407093
:102D800018B12046FFF7C4FF05E0204600F08CF89C
:102D9000204600F08AF80020207720680069C0F300
:102DA000C000D8B12068C068C0F3C000B0B16FF0F7
:102DB000080021680861042020772068C06900F0BD
:102DC000030018B12046FFF7A3FF05E0204600F0FE
:102DD0006BF8204600F069F8002020772068006931
:102DE000C0F30010D8B12068C068C0F30010B0B1C3
:102DF0006FF0100021680861082020772068C06902
:102E000000F4407018B12046FFF782FF05E020462D
:102E100000F04AF8204600F048F8002020772068AB
:102E2000006900F0010058B12068C06800F001009E
:102E300030B16FF0010021680861204600F036F8DB
:102E400020680069C0F3C01058B12068C068C0F3A2
:102E5000C01030B16FF08000216808612046FFF794
:102E6000CBFD20680069C0F3801058B12068C068AD
:102E7000C0F3801030B16FF0400021680861204637
:102E800000F032F820680069C0F3401058B12068A3
:102E9000C068C0F3401030B16FF0200021680861B5
:102EA0002046FFF7AAFD10BD7047704710B50446D5
:102EB0000A48844210D10A480088401C084908800A
:102EC00008460088B0F57A7F06DB002008804FF4C2
:102ED00000610448FDF772FF10BD000050020020A1
:102EE000080000200008024070477047704700004B
:102EF0002DE9F84F0446206805682068C6682068F8
:102F000047694FF00009CA4605F00F09B9F1000FF3
:102F10000AD105F0200038B106F0200020B120468B
:102F200003F019F9BDE8F88FB9F1000F7CD007F074
:102F3000010018B906F49070002875D005F0010062
:102F400030B106F4807018B1206C40F001002064AC
:102F500005F0040030B107F0010018B1206C40F01A
:102F60000200206405F0020030B107F0010018B142
:102F7000206C40F00400206405F0080048B106F021
:102F8000200010B907F0010018B1206C40F00800D3
:102F90002064206C002846D005F0200028B106F0FF
:102FA000200010B1204603F0D6F820684069C0F335
:102FB000801A206C00F0080010B9BAF1000F2DD073
:102FC000204603F082F82068406900F04000402865
:102FD00020D100BF00BF2168143151E8001F21F04B
:102FE00040002168143141E80002002AF3D100BFFB
:102FF000A06B50B17548A16B0865A06BFDF738FD5B
:1030000088B1A06B016D88470DE02046FFF76EFF89
:1030100009E009E02046FFF769FF04E02046FFF7DA
:1030200065FF002020647DE7206B012876D105F044
:103030001000002872D006F010000028FAD000BF5F
:103040000020009020680068009020684068009090
:1030500000BF00BF2068406900F0400040285ED1FA
:10306000A06B006840681FFA80F8B8F1000F54D0D8
:10307000A08D404551DDA4F82E80A06BC069B0F54D
:10308000807F43D000BF00BF21680C3151E8001F92
:1030900021F4807021680C3141E80002002AF3D14C
:1030A00000BF00BF00BF2168143151E8001F21F0AC
:1030B00001002168143141E80002002AF3D100BF69
:1030C00000BF00BF2168143151E8001F21F040000B
:1030D0002168143141E80002002AF3D100BF20200A
:1030E00084F83E000020206300BF00BF21680C313F
:1030F00051E8001F21F0100021680C3141E8000266
:10310000002AF3D100BFA06BFDF75CFCA08DE28D1F
:10311000801A81B22046FFF7E8FE03E740E0A08D69
:10312000E18D401A1FFA80F8E08DC0B3B8F1000FAE
:1031300035D000BF00BF21680C3151E8001F21F4D9
:10314000907021680C3141E80002002AF3D100BFE1
:1031500000BF00BF2168143151E8001F21F00100B9
:103160002168143141E80002002AF3D100BF202079
:1031700084F83E000020206300BF00BF21680C31AE
:1031800051E8001F21F0100021680C3141E80002D5
:10319000002AF3D100BF41462046FFF7A6FEC1E654
:1031A00005F0800030B106F0800018B1204603F031
:1031B00065F9B7E605F0400030B106F0400018B1FF
:1031C000204602F0B8FFADE600BFABE6B7600008EE
:1031D00010B504460CB9012010BDA06900B100E093
:1031E00000BF94F83D0028B9002084F83C00204638
:1031F00000F028F8242084F83D002068C06820F4FE
:1032000000502168C860204603F022F82068006959
:1032100020F49040216808612068406920F02A006D
:10322000216848612068C06840F400502168C86087
:1032300000202064202084F83D0084F83E00002017
:10324000CAE7000010B586B00446142101A8FDF7B6
:1032500015F84D492068884255D100BF00200090E4
:103260004A48006840F01000484908600846006875
:1032700000F01000009000BF00BF00BF00200090D1
:1032800042481438006840F0010040491439086091
:103290000846006800F00100009000BF00BF00BFBA
:1032A000002000900846006840F0020008600846D0
:1032B000006800F00200009000BF00BF08150190F8
:1032C0000220029000200390032004900720059024
:1032D00001A92F48FDF76CFC4020019002200290CC
:1032E00000200390032004900720059001A929489D
:1032F000FDF75EFC00220B212520FEF77BFC25203C
:10330000FEF768FC3DE024492068884239D100BFBF
:10331000002000901D48001F006840F400301B4949
:10332000091F08600846006800F40030009000BFE4
:1033300000BF00BF0020009014481438006840F01F
:1033400001001249143908600846006800F00100C5
:10335000009000BF00BF0C200190022002900020CE
:103360000390032004900720059001A90848FDF769
:103370001FFC00220A212620FEF73CFC2620FEF737
:1033800029FC06B010BD0000001001404438024086
:1033900000000240000402400044004070472DE954
:1033A000F84F04460E46174699464FF0000A94F827
:1033B0003D0020285AD106B117B90120BDE8F88F89
:1033C00000BF94F83C00012801D10220F6E701205B
:1033D00084F83C0000BF00202064212084F83D00D8
:1033E000FDF7FCFC8246A784E784A068B0F5805F07
:1033F00004D1206910B90025B04602E035464FF0EF
:10340000000800BF002084F83C0000BF1BE05346CA
:10341000002280212046CDF8009003F05FF808B12B
:103420000320CBE745B9B8F80000C0F308002168D5
:10343000486008F1020803E02878216848606D1CA4
:10344000E08C401EE084E08C0028E0D1534600224E
:1034500040212046CDF8009003F040F808B1032049
:10346000ACE7202084F83D000020A7E70220A5E774
:1034700070472DE9F04705468846D5F800904E463E
:10348000444606F5A06000EB4410806800F004009C
:10349000042812D1042106F5A06000EB44108160DD
:1034A00006F5A06000EB4410C06840F0020106F58C
:1034B000A06000EB4410C160C9E006F5A06000EB1D
:1034C0004410806800F48070B0F5807F22D14FF402
:1034D000807106F5A06000EB44108160072104EBC9
:1034E000440000EBC40205F1380000EB820080F8D4
:1034F000291006F5A06000EB4410C06840F00201FE
:1035000006F5A06000EB4410C160E1B2286805F048
:1035100045FD9CE006F5A06000EB4410806800F0DB
:103520002000202806D1202106F5A06000EB4410E1
:1035300081608CE006F5A06000EB4410806800F02C
:103540000800082827D106F5A06000EB4410C068E9
:1035500040F0020106F5A06000EB4410C1600521B7
:1035600004EB440000EBC40205F1380000EB8200DC
:1035700080F82910102106F5A06000EB441081604E
:10358000082106F5A06000EB44108160E1B22868D4
:1035900005F004FD5BE006F5A06000EB44108068D8
:1035A00000F48060B0F5806F27D106F5A06000EBD5
:1035B0004410C06840F0020106F5A06000EB441022
:1035C000C160082104EB440000EBC40205F138009F
:1035D00000EB820080F82910102106F5A06000EBB6
:1035E00044108160890106F5A06000EB4410816001
:1035F000E1B2286805F0D2FC29E006F5A06000EBF6
:103600004410806800F08000802820D106F5A0607A
:1036100000EB4410C06840F0020106F5A06000EB2A
:103620004410C160062104EB440000EBC40205F124
:10363000380000EB820080F82910E1B2286805F01C
:10364000ADFC802106F5A06000EB4410816006F51A
:10365000A06000EB4410806800F40070B0F5007FBB
:1036600017D106F5A06000EB4410C06840F00201DD
:1036700006F5A06000EB4410C160E1B2286805F0D7
:103680008DFC4FF4007106F5A06000EB44108160E2
:103690009EE206F5A06000EB4410806800F0010097
:1036A00000287DD02869C8B104EB440000EBC401B8
:1036B00005F1380000EB8100016906F5A06000EB20
:1036C00044100069C0F31200091A04EB440000EB37
:1036D000C40205F1380000EB82008161012104EB96
:1036E000440000EBC40205F1380000EB820080F8D2
:1036F0002910002104EB440000EBC40205F138005E
:1037000000EB82004162012106F5A06000EB44104D
:10371000816004EB440000EBC40105F1380000EBCC
:103720008100C07950B104EB440000EBC40105F105
:10373000380000EB8100C079022816D106F5A060A0
:1037400000EB4410C06840F0020106F5A06000EBF9
:103750004410C160E1B2286805F020FC102106F594
:10376000A06000EB441081606AE004EB440000EBD1
:10377000C40105F1380000EB8100C079032827D18E
:1037800006F5A06000EB4410006840F0005106F51B
:10379000A06000EB44100160012104EB440000E054
:1037A00093E000EBC40205F1380000EB820080F8E2
:1037B000281004EB440000EBC40305F1380000EBD3
:1037C000830090F82820E1B22846FDF7DBFB37E0C4
:1037D00004EB440000EBC40105F1380000EB81006C
:1037E000C07901282CD1012104EB440000EBC40274
:1037F00005F1380000EB820080F8281004EB44004B
:1038000000EBC40105F1380000EB8100007F80F07F
:10381000010104EB440000EBC40205F1380000EBA9
:103820008200017704EB440000EBC40305F138008B
:1038300000EB830090F82820E1B22846FDF7A2FBB8
:10384000286901282CD104EB440000EBC40105F1E8
:10385000380000EB8100016904EB440000EBC40276
:1038600005F1380000EB82000089B1FBF0F000F0B8
:103870000100002813D004EB440000EBC40105F163
:10388000380000EB8100007F80F0010104EB440070
:1038900000EBC40205F1380000EB8200017797E1EC
:1038A00004EB440000EBC40105F1380000EB81009B
:1038B000007F80F0010104EB440000EBC40205F13D
:1038C000380000EB8200017782E106F5A06000EB92
:1038D0004410806800F0020002287DD106F5A06047
:1038E00000EB4410C06820F0020106F5A06000EB78
:1038F0004410C16004EB440000EBC40105F1380042
:1039000000EB810090F8290001280BD1012104EB84
:10391000440000EBC40205F1380000EB820080F89F
:103920002810CFE004EB440000EBC40105F138009F
:1039300000EB810090F8290005280BD1052104EB4C
:10394000440000EBC40205F1380000EB820080F86F
:103950002810B7E004EB440000EBC40105F1380087
:1039600000EB810090F8290006280BD004EB4400FE
:1039700000EBC40105F1380000EB810090F829004C
:1039800008284FD104EB440000EBC40105F13800D6
:1039900000EB8100406A401C04EB440101EBC402CF
:1039A00005F1380101EB8201486204EB440000EBB1
:1039B000C40105F1380000EB8100406A022817D9E4
:1039C000002104EB440000EBC40205F1380000EBD9
:1039D00082004162042100E089E004EB440000EB36
:1039E000C40205F1380000EB820080F8281069E07D
:1039F000022104EB440000EBC40205F1380000EBA7
:103A0000820080F8281006F5A06000EB44100768DB
:103A100027F0804747F0004706F5A06000EB441010
:103A200007604FE004EB440000EBC40105F13800EF
:103A300000EB810090F82900032819D1022104EB42
:103A4000440000EBC40205F1380000EB820080F86E
:103A5000281006F5A06000EB4410076827F08047A7
:103A600047F0004706F5A06000EB4410076029E02E
:103A700004EB440000EBC40105F1380000EB8100C9
:103A800090F8290007281DD104EB440000EBC40185
:103A900005F1380000EB8100406A401C04EB440152
:103AA00001EBC40205F1380101EB820148620421F7
:103AB00004EB440000EBC40205F1380000EB820087
:103AC00080F82810022106F5A06000EB4410816008
:103AD00004EB440000EBC40305F1380000EB830065
:103AE00090F82820E1B22846FDF74CFA70E006F580
:103AF000A06000EB4410806800F01000102867D12F
:103B000004EB440000EBC40105F1380000EB810038
:103B1000C07903281AD1002104EB440000EBC40251
:103B200005F1380000EB8200416206F5A06000EB71
:103B30004410C06840F0020106F5A06000EB44109C
:103B4000C160E1B2286805F029FA3BE004EB4400CB
:103B500000EBC40105F1380000EB8100C07950B1E1
:103B600004EB440000EBC40105F1380000EB8100D8
:103B7000C079022826D1002104EB440000EBC402E6
:103B800005F1380000EB820041622869D0B90321B9
:103B900004EB440000EBC40205F1380000EB8200A6
:103BA00080F8291006F5A06000EB4410C06840F0D2
:103BB000020106F5A06000EB4410C160E1B2286884
:103BC00005F0ECF9102106F5A06000EB44108160CF
:103BD000BDE8F0872DE9F04705460F46D5F800907F
:103BE0004E463C4606F5A06000EB4410806800F0AD
:103BF0000400042812D1042106F5A06000EB441053
:103C0000816006F5A06000EB4410C06840F002013E
:103C100006F5A06000EB4410C1607CE306F5A060EF
:103C200000EB4410806800F02000202836D12021CD
:103C300006F5A06000EB4410816004EB440000EB4B
:103C4000C40105F1380000EB810040790128E4D17E
:103C5000002104EB440000EBC40205F1380000EB46
:103C600082004171022104EB440000EBC40205F123
:103C7000380000EB820080F8281006F5A06000EB09
:103C80004410C06840F0020106F5A06000EB44104B
:103C9000C160E1B2286805F081F93CE306F5A06057
:103CA00000EB4410806800F40070B0F5007F17D17D
:103CB00006F5A06000EB4410C06840F0020106F574
:103CC000A06000EB4410C160E1B2286805F066F91D
:103CD0004FF4007106F5A06000EB441081601AE318
:103CE00006F5A06000EB4410806800F00100E8B326
:103CF000002104EB440000EBC40205F1380000EBA6
:103D00008200416206F5A06000EB4410806800F07C
:103D1000400040280FD1012104EB440000EBC40215
:103D200005F1380000EB82004171402106F5A060EA
:103D300000EB4410816006F5A06000EB4410C06801
:103D400040F0020106F5A06000EB4410C160E1B252
:103D5000286805F023F9012106F5A06000EB441066
:103D6000816004EB440000EBC40200E006E005F1D2
:103D7000380000EB820080F82910CCE206F5A06044
:103D800000EB4410806800F04000402835D1042149
:103D900004EB440000EBC40205F1380000EB8200A4
:103DA00080F82910012104EB440000EBC40205F166
:103DB000380000EB82004171002104EB440000EB6D
:103DC000C40205F1380000EB8200416206F5A060F4
:103DD00000EB4410C06840F0020106F5A06000EB63
:103DE0004410C160E1B2286805F0D8F8402106F51A
:103DF000A06000EB441081608DE206F5A06000EB4E
:103E00004410806800F00800082821D1082106F538
:103E1000A06000EB4410816006F5A06000EB441048
:103E2000C06840F0020106F5A06000EB4410C160DC
:103E3000E1B2286805F0B2F8052104EB440000EB7C
:103E4000C40205F1380000EB820080F8291062E21C
:103E500006F5A06000EB4410806800F01000102808
:103E600049D1002104EB440000EBC40205F1380005
:103E700000EB82004162032104EB440000EBC4022A
:103E800005F1380000EB820080F8291004EB4400B3
:103E900000EBC40105F1380000EB8100407998B9CE
:103EA00004EB440000EBC40105F1380000EB810095
:103EB000007948B9012104EB440000EBC40205F18C
:103EC000380000EB8200417106F5A06000EB441061
:103ED000C06840F0020106F5A06000EB4410C1602C
:103EE000E1B2286805F05AF8102106F5A06000EB51
:103EF000441081600FE206F5A06000EB441080687A
:103F000000F08000802872D12869D8B9062104EB1E
:103F1000440000EBC40205F1380000EB820080F899
:103F2000291006F5A06000EB4410C06840F00201C3
:103F300006F5A06000EB4410C160E1B2286805F00E
:103F40002DF84CE004EB440000EBC40105F138000F
:103F500000EB8100406A401C04EB440101EBC40209
:103F600005F1380101EB8201486204EB440000EBEB
:103F7000C40105F1380000EB8100406A022823D912
:103F8000002104EB440000EBC40205F1380000EB13
:103F900082004162042104EB440000EBC40205F1FD
:103FA000380000EB820080F8281004EB440000EB9E
:103FB000C40305F1380000EB830090F82820E1B23B
:103FC0002846FCF7DFFF0AE0022104EB440000EB87
:103FD000C40205F1380000EB820080F8281080212F
:103FE00006F5A06000EB4410816094E1FFE706F560
:103FF000A06000EB4410806800F48060B0F5806F32
:1040000027D106F5A06000EB4410C06840F0020123
:1040100006F5A06000EB4410C160E1B2286804F02E
:10402000BDFF102106F5A06000EB441081608901FE
:1040300006F5A06000EB44108160082104EB440009
:1040400000EBC40205F1380000EB820080F8291073
:1040500061E106F5A06000EB4410806800F002000A
:104060000228C2D106F5A06000EB4410C06820F021
:10407000020106F5A06000EB4410C16004EB4400AF
:1040800000EBC40105F1380000EB810090F8290035
:1040900001287DD1012104EB440000EBC40205F1AD
:1040A000380000EB820080F8281004EB440000EB9D
:1040B000C40105F1380000EB8100C07902280AD064
:1040C00004EB440000EBC40105F1380000EB810073
:1040D000C07903285AD1286998B904EB440000EB51
:1040E000C40105F1380000EB8100407F80F0010140
:1040F00004EB440000EBC40205F1380000EB820041
:1041000041772869012841D104EB440000EBC40148
:1041100005F1380000EB81004069002836D004EB3F
:10412000440000EBC40105F1380000EB8100416957
:1041300004EB440000EBC40205F1380000EB820000
:1041400000890844401E04EB440101EBC40205F160
:10415000380101EB82010989B0FBF1FA0AF0010094
:10416000002813D004EB440000EBC40105F1380033
:1041700000EB8100407F80F0010104EB440000EB84
:10418000C40205F1380000EB82004177AFE0FFE7A1
:1041900004EB440000EBC40105F1380000EB8100A2
:1041A00090F8290003280BD1022104EB440000EB16
:1041B000C40205F1380000EB820080F8281096E078
:1041C00004EB440000EBC40105F1380000EB810072
:1041D00090F8290004280BD1022104EB440000EBE5
:1041E000C40205F1380000EB820080F828107EE060
:1041F00004EB440000EBC40105F1380000EB810042
:1042000090F8290005280BD1052104EB440000EBB0
:10421000C40205F1380000EB820080F8281066E047
:1042200004EB440000EBC40105F1380000EB810011
:1042300090F8290006280BD004EB440000EBC401E1
:1042400005F1380000EB810090F8290008284ED1D4
:1042500004EB440000EBC40105F1380000EB8100E1
:10426000406A401C04EB440101EBC40205F1380133
:1042700001EB8201486204EB440000EBC40105F14C
:10428000380000EB8100406A022815D9002104EBB8
:10429000440000EBC40205F1380000EB82004162EB
:1042A000042104EB440000EBC40205F1380000EBEC
:1042B000820080F828101AE0022104EB440000EB91
:1042C000C40205F1380000EB820080F8281006F5E2
:1042D000A06000EB4410D0F8008028F0804848F03F
:1042E000004806F5A06000EB4410C0F800800221F1
:1042F00006F5A06000EB4410816004EB440000EB85
:10430000C40305F1380000EB830090F82820E1B2E7
:104310002846FCF737FEBDE8F0877CB504462668E2
:104320003546D5F840040190D5F840040090009837
:1043300020F02E000090019800F0020002280AD11F
:10434000019800F0010010B12046FCF74DFD0098E7
:1043500040F002000090019800F0080008282AD1DF
:10436000009840F008000090019800F00400042834
:104370001ED1A06902280FD1019800F4C020B0F529
:10438000802F04D10221206805F01AF90CE00121E8
:10439000206805F015F907E0E068012804D14EF621
:1043A000602140F2044041512046FDF79AF802E0B6
:1043B0002046FDF78FF8019800F02000202803D157
:1043C000009840F0200000900098C5F840047CBDA3
:1043D0002DE9F84F0546D5F800B05F462868D0F8BB
:1043E000208008F00F04C8F343400090C8F30A1679
:1043F0000098022806D003287DD005287CD0072805
:104400007BD1A3E0002E79D004EB440000EBC40183
:1044100005F1380000EB8100C06800286ED004EB85
:10442000440000EBC40105F1380000EB8100806915
:10443000811904EB440000EBC40205F1380000EBE5
:1044400082004069814272D8B2B204EB440303EBAC
:10445000C40C05F1380303EB8C03D968286805F018
:10446000D6F804EB440000EBC40105F1380000EB82
:104470008100C068811904EB440000EBC40205F11F
:10448000380000EB8200C16004EB440000EBC40183
:1044900005F1380000EB81008069811904EB4400CC
:1044A00000EBC40205F1380000EB8200816107F5E2
:1044B000A06000EB44100069C0F3C94A04EB44005B
:1044C00000EBC40105F1380000EB81000089B04227
:1044D00038D1BAF1000F35D007F5A06000EB4410D9
:1044E000D0F8009029F0804949F0004907F5A06014
:1044F00000EB441003E028E025E025E022E0C0F8CE
:10450000009004EB440000EBC40105F1380000EB1F
:104510008100007F80F0010104EB440000EBC40245
:1045200005F1380000EB820001770BE0FFE7042182
:1045300004EB440000EBC40205F1380000EB8200FC
:1045400080F8281003E002E000BF00BF00BF00BFFA
:10455000BDE8F88F00BFFEE77CB5044600F044FBE1
:10456000054600F031FB06460020CDE9000408486E
:10457000006800EB800202EBC002064800EB8200FC
:104580002B463246416A0248006800F07BFC7CBD45
:10459000480000208801002010B50A4800688069A2
:1045A00020F0010007490968886100224FF400618A
:1045B0000548FCF70DFC012251020448FCF708FCF9
:1045C00010BD0000500100200020024000140240F5
:1045D00010B50A480068806940F001000749096881
:1045E00088610122D1020648FCF7F2FB00224FF459
:1045F00000710448FCF7ECFB10BD000050010020E6
:10460000002002400014024000B587B000BF002027
:104610000190FE48006840F08000FC4908600846B0
:10462000006800F08000019000BF00BF00BF0020C4
:1046300001900846006840F0800008600846006865
:1046400000F08000019000BF00BF00BF002001907B
:104650000846006840F0800008600846006800F0E6
:104660008000019000BF00BF00BF002001900846FD
:10467000006840F0800008600846006800F0800094
:10468000019000BF00BF00BF0020019008460068F5
:1046900040F0800008600846006800F0800001904B
:1046A00000BF00BF00BF002001900846006840F036
:1046B000010008600846006800F00100019000BF9A
:1046C00000BF00BF002001900846006840F0800055
:1046D00008600846006800F08000019000BF00BF3D
:1046E00000BF002001900846006840F040000860CC
:1046F0000846006800F04000019000BF00BF00BF06
:10470000002001900846006840F01000086008464C
:10471000006800F01000019000BF00BF00BF002043
:1047200001900846006840F01000086008460068E4
:1047300000F01000019000BF00BF00BF00200190FA
:104740000846006840F0800008600846006800F0F5
:104750008000019000BF00BF00BF0020019008460C
:10476000006840F0800008600846006800F08000A3
:10477000019000BF00BF00BF002001900846006804
:1047800040F0800008600846006800F0800001905A
:1047900000BF00BF00BF002001900846006840F441
:1047A000807008600846006800F48070019000BFC7
:1047B00000BF00BF002001900846006840F48070F0
:1047C00008600846006800F48070019000BF00BFD8
:1047D00000BF002001900846006840F00800086013
:1047E0000846006800F00800019000BF00BF00BF4D
:1047F000002001900846006840F01000086008465C
:10480000006800F01000019000BF00BF00BF002052
:1048100001900846006840F04000086008460068C3
:1048200000F04000019000BF00BF00BF00200190D9
:104830000846006840F0400008600846006800F044
:104840004000019000BF00BF00BF0020019008465B
:10485000006840F0080008600846006800F00800A2
:10486000019000BF00BF00BF002001900846006813
:1048700040F4807008600846006800F48070019081
:1048800000BF00BF00BF002001900846006840F450
:10489000807008600846006800F48070019000BFD6
:1048A00000BF00BF002001900846006840F48070FF
:1048B00008600846006800F48070019000BF00BFE7
:1048C00000BF002001900846006840F48070086036
:1048D0000846006800F48070019000BF00BF00BF70
:1048E000002001900846006840F04000086008463B
:1048F000006800F04000019000BF00BF00BF002032
:1049000001900846006840F480700860084600681E
:1049100000F48070019000BF00BF00BF0020019034
:104920000846006840F4807008600846006800F49B
:104930008070019000BF00BF00BF002001900846BA
:10494000006840F0200008600846006800F0200081
:10495000019000BF00BF00BF002001900846006822
:1049600040F4807008600846006800F48070019090
:1049700000BF00BF00BF002001900846006840F063
:10498000200008600846006800F02000019000BF89
:1049900000BF0220059003900120049004200290A3
:1049A0000E20069002A91A48FCF702F9082002908E
:1049B0000E20069002A91648FCF7FAF84FF4807012
:1049C00002900E20069002A91148FCF7F1F84FF46E
:1049D000007002900E20069002A90D48FCF7E8F83E
:1049E0004FF4806002900E20069002A90848FCF760
:1049F000DFF84FF4006002900E20069002A90548EF
:104A0000FCF7D6F84FF48050029005E030380240B1
:104A1000001C0240000002400E20069002A96448DB
:104A2000FCF7C6F8402002900E20069002A96148CB
:104A3000FCF7BEF8202002900E20069002A95E48E6
:104A4000FCF7B6F8402002900E20069002A95A48C2
:104A5000FCF7AEF84FF4005002900E20069002A929
:104A60005348FCF7A5F84FF4804002900E200690C2
:104A700002A94F48FCF79CF84FF4004002900E202A
:104A8000069002A94A48FCF793F8012002900E20F4
:104A9000069002A94948FCF78BF8022002900E20EC
:104AA000069002A94548FCF783F8082002900E20E2
:104AB000069002A94248FCF77BF8102002900E20D5
:104AC000069002A93C48FCF773F84FF4805002901E
:104AD0000E20069002A93748FCF76AF84FF4806070
:104AE00002900E20069002A93248FCF761F84FF4BC
:104AF000006002900E20069002A92E48FCF758F89C
:104B0000102002900E20069002A92C48FCF750F8C5
:104B1000202002900E20069002A92848FCF748F8B1
:104B2000402002900E20069002A92448FCF740F88D
:104B3000802002900E20069002A92048FCF738F849
:104B4000802002900E20069002A91A48FCF730F847
:104B50004FF4806002900E20069002A91748FCF7DF
:104B600027F84FF4007002900E20069002A9134817
:104B7000FCF71EF84FF4806002900E20069002A908
:104B80001048FCF715F84FF40060029002200590E1
:104B900001200390049002A90848FCF709F84FF49B
:104BA0000070029002A90748FCF702F807B000BDA8
:104BB000001C024000180240001002400020024089
:104BC000000C0240001402400548006800EB800120
:104BD00001EBC001034800EB8100806A70470000D0
:104BE00048000020880100200548006800EB800193
:104BF00001EBC001034800EB8100C06A7047000070
:104C0000480000208801002000B58DB000BF0020C2
:104C100000903648006840F08060344908600846DB
:104C2000006800F08060009000BF00BF00BF00205F
:104C300000902E481438006840F400002B491439C5
:104C400008600846006800F40000009000BF00BF44
:104C5000FFF7DAFC26482749086000212548416112
:104C600081612E21C1611721016240F24E31416202
:104C700040F2F71181624FF45971C16240F20D2187
:104C80000163082001903220059002210791002045
:104C90000A9001A8FDF700F84FF448711548016625
:104CA0004FF4F0714166002180F8361080F835101D
:104CB00080F8341000200F49486000210D488160C1
:104CC000C1600161FCF74EFD0B4800F081F8002245
:104CD00001215820FCF78EFF5820FCF77BFF0021B4
:104CE0000448FCF7DDFE0DB000BD00004438024072
:104CF00000680140500100201C00002070B58EB0FB
:104D000004460D46164600200190FFF75DFF029015
:104D100000200390FFF768FF049005960A95FF2096
:104D20000690002007908DF8340000218DF8351092
:104D30008DF836104FF4C060089007200990FFF7F7
:104D400043FF0B90FFF750FF0C90224601A9144837
:104D5000FCF75EFC4FF0FF3004EB4401114A02EB1C
:104D600081014860104804EB440102EB8101886036
:104D70004FF07F4004EB440142F8210008480068EE
:104D8000406A40F001000649096848620748007817
:104D9000401C06490870064804600EB070BD000053
:104DA00050010020200300201C00002044000020AF
:104DB0004800002004490978022900DA70470349B5
:104DC000086000BFFAE7000044000020480000200F
:104DD0000449096801EB4101034A02EB8101886043
:104DE00070470000480000202003002070B50446F2
:104DF0000D46224629460248FCF792FE70BD00008F
:104E00005001002010B586B014220B4901A8FBF711
:104E10001CFA0120FFF7CEFF002409E04FF47A705E
:104E2000FBF73AFE01A951F82400FFF795FB641C3B
:104E3000052CF3D306B010BD28F4000810B5FFF719
:104E4000ABFBFFF7C1FE0246FFF7CEFE42430C4824
:104E500000784243A2F18044002221460120FFF75E
:104E60004DFF0120FFF7A6FF4FF07F40FFF774FBD7
:104E7000FF210120FFF7BAFFFFF7AAFB10BD0000DA
:104E80004C0000202DE9F84304460D4616461F4607
:104E9000DDE908983A48FBF7A1FC4FF44030384967
:104EA00048603848006800EB800101EBC0013648DB
:104EB00000EB81000069022803D1022130488160A3
:104EC0003DE03048006800EB800101EBC0012E4856
:104ED00000EB8100006918B90021294881602EE0AB
:104EE0002848006800EB800101EBC001264800EB78
:104EF00081000069012803D10121214881601EE061
:104F00002048006800EB800101EBC0011E4800EB67
:104F100081000069032803D10321194881600EE054
:104F20001848006800EB800101EBC001164800EB57
:104F300081000069042802D10421114881601048D1
:104F4000C0F80C9011480E4908600846FBF706FCB3
:104F500080B921460A48FBF797FB58B933462A46E1
:104F6000414607480097FBF706FD18B9642104483D
:104F7000FBF74EFC0248FBF721FCBDE8F88300007C
:104F8000DC000020480000208801002000B0024022
:104F900010B50248FCF76CFB10BD0000500100206A
:104FA000F0B58E880768FF68C7F30B473E443304AB
:104FB00006688436802707FB0266766806F4704729
:104FC000066884364FF0800C0CFB026677600E6832
:104FD0000768FF68C7F30B473E44761C1E4307680B
:104FE00084370CFB02777E608E890768FF68C7F301
:104FF0000A073E44330406688436802707FB0266AE
:10500000B66806F47047066884360CFB0266B76023
:105010008E680768FF68C7F30A073E44761C46EAB5
:105020000307066884360CFB0266B76006688436A0
:10503000802707FB0266366926F007070668843674
:105040000CFB026637610F69066884360CFB02664A
:1050500037613126765C33023226765C34040E7E6C
:10506000350606688436802707FB0266B669002786
:10507000066884360CFB0266B76191F830601E4307
:10508000264346EA0507066884360CFB0266B761CC
:1050900006688436802707FB0266766926F0FF07DC
:1050A000066884360CFB026677614F6906688436B1
:1050B0000CFB0266776106688436802707FB026670
:1050C000F66940F20777BE43076884370CFB027726
:1050D000FE61D1E907763743066884360CFB026629
:1050E000F76106688436802707FB0266B66A0027E8
:1050F000066884360CFB0266B7624F6A066884361F
:105100000CFB0266B7620E690EB9042313E00E6948
:10511000012E01D103230EE00E69042E08D00E6982
:10512000022E05D00E69032E02D00E69072E01D182
:10513000022300E0012306688436802707FB02660D
:10514000F66A06F0E027066884364FF0800C0CFB08
:105150000266F762D1E90076F61B5E43F61C0F8DFE
:105160005F4346EA0747066884360CFB0266F7622F
:1051700006688436802707FB0266366BF70AFF0253
:10518000066884360CFB02663763CF6A066884368D
:105190000CFB0266376306688436D701F65946F081
:1051A0000107066884364FEAC21C46F80C70F0BD51
:1051B00000B50248FBF702FB00BD0000DC00002048
:1051C00070B5044625460CB9012500E000252A46A5
:1051D0004FF480710148FBF7FBFD70BD00000240F9
:1051E00000B587B01D48FDF787FA1C216846FBF71C
:1051F00045F81B48194908600020486001211748FC
:1052000081600821C16010210161402141614FF49A
:10521000C07181610021C1614FF4006101624900E8
:105220004162002181620220009007200190042049
:105230000290062003900220049005900690694693
:105240000648FDF739FA08B1FBF723F900F014FA24
:105250000F2000F0DBF907B000BD00001C010020AA
:10526000400100A000B587B0142102A8FBF706F8A2
:1052700000BF002001908248006840F01000804983
:1052800008600846006800F01000019000BF00BFF1
:1052900000BF002001900846006840F4807008605C
:1052A0000846006800F48070019000BF00BF00BF96
:1052B000002001900846006840F020000860084681
:1052C000006800F02000019000BF00BF00BF002078
:1052D00001900846006840F08000086008460068B9
:1052E00000F08000019000BF00BF00BF00200190CF
:1052F0000846006840F0040008600846006800F0B6
:105300000400019000BF00BF00BF002001900846CC
:10531000006840F0010008600846006800F00100E5
:10532000019000BF00BF00BF002001900846006848
:1053300040F0020008600846006800F0020001909A
:1053400000BF00BF00BF002001900846006840F089
:10535000400008600846006800F04000019000BF6F
:1053600000BF00BF002001900846006840F0080020
:1053700008600846006800F00800019000BF00BF08
:105380000122C9143F48FBF723FD012251023E4888
:10539000FBF71EFD012210213C48FBF719FD0122FD
:1053A0004FF472613A48FBF713FD01221146394868
:1053B000FBF70EFD00224FF480713748FBF708FD24
:1053C0000122D1033448FBF703FD4FF40060029043
:1053D00001200390002004900220059002A9294892
:1053E000FBF7E6FB4FF400700290012003900020D1
:1053F00004900220059002A92348FBF7D9FB102056
:10540000029001200390002004900220059002A940
:105410001E48FBF7CDFB4FF4E4600290012003909F
:10542000002004900220059002A91948FBF7C0FB58
:10543000012002900390002004900220059002A910
:105440001448FBF7B5FB4FF4014002900120039094
:10545000002004900220059002A90F48FBF7A8FB4A
:105460004FF400600290112003900020049002206D
:10547000059002A90648FBF79BFB07B000BD0000A2
:10548000303802400020024000140240001C02405C
:1054900000080240000402400000024010B503482A
:1054A000FCF706FAFFF7B0FB10BD0000500100202A
:1054B00000B587B01B48FDF72FFB00200390049038
:1054C00005900690019002904FF0804015490860C9
:1054D000532048600021134881604FF47A71C16005
:1054E0000021016180218161FDF7E2FA08B1FAF73C
:1054F000D0FF4FF48050039003A90A48FDF782FBC8
:1055000008B1FAF7C6FF00200190029001A90548F2
:10551000FDF774FA08B1FAF7BCFF0248FDF71EFB6D
:1055200007B000BD5002002010B50C48FDF78AFE00
:105530000B480A4908604FF4E130486000210748F1
:105540008160C16001610C21416100218161C16103
:10555000FDF73EFE08B1FAF79CFF10BD980200204F
:105560000010014010B50C48FDF76CFE0B480A49CD
:1055700008604FF4E1304860002107488160C16055
:1055800001610C21416100218161C161FDF720FEB3
:1055900008B1FAF77EFF10BDDC0200200044004095
:1055A00010B501220B490C4801F0F6FB08B1FAF7DF
:1055B00070FF0A49084803F0C5F808B1FAF769FF17
:1055C000054803F028F908B1FAF763FF0020FFF758
:1055D000F7FD10BD2D880008C00300209C000020AE
:1055E00010B5024802F04AFF10BD0000C0030020C1
:1055F00000BFFEE700BFFEE710B50248FBF715FE4F
:1056000010BD0000980700207047000030B5044628
:1056100004F0010040B14FF040454FF4000200217A
:10562000284600F06FF800BF04F0020038B1104DBA
:105630004FF400020021284600F064F800BF04F097
:10564000040040B14FF041454FF4000200212846CC
:1056500000F058F800BF04F0080038B1054D4FF4D1
:1056600000020021284600F04DF800BF002030BDA8
:10567000000080C0000080C11FB500240120009000
:105680001020019001200290002003904FF6FF723D
:1056900069461B48FDF749F80120FBF7FDF9022098
:1056A00000901020019001200290002003904FF6FE
:1056B000FF7269461248FDF738F803200090102069
:1056C000019008200290002003904FF6FF72694677
:1056D0000B48FDF72AF84FF40C74042000901020BA
:1056E00001900120029003944FF6FF72694604482E
:1056F000FDF71BF840F2AB210148FDF702F81FBD92
:105700001C01002030B503461C46002002E044F88E
:105710002010401CB0EB920FF9D3002030BD2DE9D2
:10572000F04107460D4614461E46384600F0D6F8AE
:10573000032000F003FA200E00F000FAC4F3074043
:1057400000F0FCF9C4F3072000F0F8F9E0B200F033
:10575000F5F904E0FF2000F0F1F928706D1C301E0F
:10576000A6F10106F6D1384600F08AF8BDE8F081CE
:105770002DE9F84F83460F4615461E464FF00008A8
:10578000C146C24600240020009005F0FF0ACAF17D
:105790000000C4B2C6F3072806F0FF09BAF1000FF3
:1057A00023D1B8F1000F06D133462A463946584670
:1057B00000F010F961E00AE04FF480732A463946A0
:1057C000584600F007F905F5807507F58077B8F1C0
:1057D0000000A8F1010101F0FF08EDD14B462A4677
:1057E0003946584600F0F6F847E0B8F1000F1BD1F3
:1057F000A14512DDA9EB0400C0B2009023462A4661
:105800003946584600F0E6F8254427442A463946EA
:105810005846009B00F0DEF82FE033462A46394612
:10582000584600F0D7F828E0361BC6F3072806F0E4
:10583000FF0923462A463946584600F0CBF825444E
:1058400027440AE04FF480732A463946584600F050
:10585000C1F805F5807507F58077B8F10000A8F16B
:10586000010101F0FF08EDD1B9F1000F05D04B4661
:105870002A463946584600F0ADF8BDE8F88F0000DA
:1058800010B50446012C06D0022C0AD0032C0ED0F1
:10589000042C18D111E0012210210C48FBF798FAD2
:1058A00012E0012211460A48FBF792FA0CE00122AD
:1058B000D1030848FBF78CFA06E0012220210648B4
:1058C000FBF786FA00E000BF00BF10BD001C0240DD
:1058D00000040240000002400008024010B50446E7
:1058E000012C06D0022C0AD0032C0ED0042C19D186
:1058F00012E0002210210D48FBF76AFA13E00022A3
:1059000001210B48FBF764FA0DE000224FF400413F
:105910000848FBF75DFA06E0002220210648FBF765
:1059200057FA00E000BF00BF10BD0000001C02409D
:1059300000040240000002400008024010B5154873
:10594000FCF774FF14481349086000211148C16135
:1059500081600121416102210161002181620721F1
:10596000C1620021C16001624FF4007181610021B8
:1059700041624FF48270074948600846FCF7F2FE26
:1059800004480068006840F0400002490968086067
:1059900010BD0000F80100200030014070B5044641
:1059A0002046FFF79BFF152000F0C8F8FF2000F00D
:1059B000C5F805462046FFF763FF05F0010040B932
:1059C0002046FFF78BFFB72000F0B8F82046FFF71E
:1059D00057FF70BD2DE9F04107460D4614461E469F
:1059E000384600F0DBF93846FFF778FF022000F078
:1059F000A5F8200E00F0A2F8C4F3074000F09EF8CE
:105A0000C4F3072000F09AF8E0B200F097F8B6F57A
:105A1000807F04D94FF4807609A003F0F9FE03E0FB
:105A2000287800F08BF86D1C301EA6F10106F7D126
:105A30003846FFF725FF384600F088F9BDE8F081C9
:105A40003C3C2D464C4153482D4552524F522D3E21
:105A50003E205350495F464C4153485F5061676553
:105A6000577269746520746F6F206C61726765216D
:105A70000A00000070B5044600252046FFF72EFFFF
:105A8000AB2000F05BF8FF2000F058F8FF2000F09A
:105A900055F8FF2000F052F8FF2000F04FF80546BF
:105AA0002046FFF7EDFE284670BD2DE9F041044683
:105AB000002500260027A8462046FFF70FFF9F205D
:105AC00000F03CF8FF2000F039F80646FF2000F017
:105AD00035F80746FF2000F031F880462046FFF7F2
